{
  "_format": "hh-sol-artifact-1",
  "contractName": "CouponNFT",
  "sourceName": "contracts/CouponNFT.sol",
  "abi": [
    {
      "inputs": [],
      "stateMutability": "nonpayable",
      "type": "constructor"
    },
    {
      "inputs": [
        {
          "internalType": "address",
          "name": "sender",
          "type": "address"
        },
        {
          "internalType": "uint256",
          "name": "tokenId",
          "type": "uint256"
        },
        {
          "internalType": "address",
          "name": "owner",
          "type": "address"
        }
      ],
      "name": "ERC721IncorrectOwner",
      "type": "error"
    },
    {
      "inputs": [
        {
          "internalType": "address",
          "name": "operator",
          "type": "address"
        },
        {
          "internalType": "uint256",
          "name": "tokenId",
          "type": "uint256"
        }
      ],
      "name": "ERC721InsufficientApproval",
      "type": "error"
    },
    {
      "inputs": [
        {
          "internalType": "address",
          "name": "approver",
          "type": "address"
        }
      ],
      "name": "ERC721InvalidApprover",
      "type": "error"
    },
    {
      "inputs": [
        {
          "internalType": "address",
          "name": "operator",
          "type": "address"
        }
      ],
      "name": "ERC721InvalidOperator",
      "type": "error"
    },
    {
      "inputs": [
        {
          "internalType": "address",
          "name": "owner",
          "type": "address"
        }
      ],
      "name": "ERC721InvalidOwner",
      "type": "error"
    },
    {
      "inputs": [
        {
          "internalType": "address",
          "name": "receiver",
          "type": "address"
        }
      ],
      "name": "ERC721InvalidReceiver",
      "type": "error"
    },
    {
      "inputs": [
        {
          "internalType": "address",
          "name": "sender",
          "type": "address"
        }
      ],
      "name": "ERC721InvalidSender",
      "type": "error"
    },
    {
      "inputs": [
        {
          "internalType": "uint256",
          "name": "tokenId",
          "type": "uint256"
        }
      ],
      "name": "ERC721NonexistentToken",
      "type": "error"
    },
    {
      "inputs": [
        {
          "internalType": "address",
          "name": "owner",
          "type": "address"
        }
      ],
      "name": "OwnableInvalidOwner",
      "type": "error"
    },
    {
      "inputs": [
        {
          "internalType": "address",
          "name": "account",
          "type": "address"
        }
      ],
      "name": "OwnableUnauthorizedAccount",
      "type": "error"
    },
    {
      "anonymous": false,
      "inputs": [
        {
          "indexed": true,
          "internalType": "address",
          "name": "owner",
          "type": "address"
        },
        {
          "indexed": true,
          "internalType": "address",
          "name": "approved",
          "type": "address"
        },
        {
          "indexed": true,
          "internalType": "uint256",
          "name": "tokenId",
          "type": "uint256"
        }
      ],
      "name": "Approval",
      "type": "event"
    },
    {
      "anonymous": false,
      "inputs": [
        {
          "indexed": true,
          "internalType": "address",
          "name": "owner",
          "type": "address"
        },
        {
          "indexed": true,
          "internalType": "address",
          "name": "operator",
          "type": "address"
        },
        {
          "indexed": false,
          "internalType": "bool",
          "name": "approved",
          "type": "bool"
        }
      ],
      "name": "ApprovalForAll",
      "type": "event"
    },
    {
      "anonymous": false,
      "inputs": [
        {
          "indexed": false,
          "internalType": "uint256",
          "name": "_fromTokenId",
          "type": "uint256"
        },
        {
          "indexed": false,
          "internalType": "uint256",
          "name": "_toTokenId",
          "type": "uint256"
        }
      ],
      "name": "BatchMetadataUpdate",
      "type": "event"
    },
    {
      "anonymous": false,
      "inputs": [
        {
          "indexed": false,
          "internalType": "uint256",
          "name": "_tokenId",
          "type": "uint256"
        }
      ],
      "name": "MetadataUpdate",
      "type": "event"
    },
    {
      "anonymous": false,
      "inputs": [
        {
          "indexed": true,
          "internalType": "address",
          "name": "previousOwner",
          "type": "address"
        },
        {
          "indexed": true,
          "internalType": "address",
          "name": "newOwner",
          "type": "address"
        }
      ],
      "name": "OwnershipTransferred",
      "type": "event"
    },
    {
      "anonymous": false,
      "inputs": [
        {
          "indexed": true,
          "internalType": "address",
          "name": "from",
          "type": "address"
        },
        {
          "indexed": true,
          "internalType": "address",
          "name": "to",
          "type": "address"
        },
        {
          "indexed": true,
          "internalType": "uint256",
          "name": "tokenId",
          "type": "uint256"
        }
      ],
      "name": "Transfer",
      "type": "event"
    },
    {
      "inputs": [
        {
          "internalType": "address",
          "name": "to",
          "type": "address"
        },
        {
          "internalType": "uint256",
          "name": "tokenId",
          "type": "uint256"
        }
      ],
      "name": "approve",
      "outputs": [],
      "stateMutability": "nonpayable",
      "type": "function"
    },
    {
      "inputs": [
        {
          "internalType": "address",
          "name": "owner",
          "type": "address"
        }
      ],
      "name": "balanceOf",
      "outputs": [
        {
          "internalType": "uint256",
          "name": "",
          "type": "uint256"
        }
      ],
      "stateMutability": "view",
      "type": "function"
    },
    {
      "inputs": [
        {
          "internalType": "uint256",
          "name": "tokenId",
          "type": "uint256"
        }
      ],
      "name": "burnCoupon",
      "outputs": [],
      "stateMutability": "nonpayable",
      "type": "function"
    },
    {
      "inputs": [
        {
          "internalType": "uint256",
          "name": "tokenId",
          "type": "uint256"
        }
      ],
      "name": "getApproved",
      "outputs": [
        {
          "internalType": "address",
          "name": "",
          "type": "address"
        }
      ],
      "stateMutability": "view",
      "type": "function"
    },
    {
      "inputs": [
        {
          "internalType": "address",
          "name": "owner",
          "type": "address"
        },
        {
          "internalType": "address",
          "name": "operator",
          "type": "address"
        }
      ],
      "name": "isApprovedForAll",
      "outputs": [
        {
          "internalType": "bool",
          "name": "",
          "type": "bool"
        }
      ],
      "stateMutability": "view",
      "type": "function"
    },
    {
      "inputs": [
        {
          "internalType": "address",
          "name": "to",
          "type": "address"
        },
        {
          "internalType": "string",
          "name": "couponCode",
          "type": "string"
        },
        {
          "internalType": "string",
          "name": "tokenURI",
          "type": "string"
        }
      ],
      "name": "mintCoupon",
      "outputs": [
        {
          "internalType": "uint256",
          "name": "",
          "type": "uint256"
        }
      ],
      "stateMutability": "nonpayable",
      "type": "function"
    },
    {
      "inputs": [],
      "name": "name",
      "outputs": [
        {
          "internalType": "string",
          "name": "",
          "type": "string"
        }
      ],
      "stateMutability": "view",
      "type": "function"
    },
    {
      "inputs": [],
      "name": "owner",
      "outputs": [
        {
          "internalType": "address",
          "name": "",
          "type": "address"
        }
      ],
      "stateMutability": "view",
      "type": "function"
    },
    {
      "inputs": [
        {
          "internalType": "uint256",
          "name": "tokenId",
          "type": "uint256"
        }
      ],
      "name": "ownerOf",
      "outputs": [
        {
          "internalType": "address",
          "name": "",
          "type": "address"
        }
      ],
      "stateMutability": "view",
      "type": "function"
    },
    {
      "inputs": [],
      "name": "renounceOwnership",
      "outputs": [],
      "stateMutability": "nonpayable",
      "type": "function"
    },
    {
      "inputs": [
        {
          "internalType": "address",
          "name": "from",
          "type": "address"
        },
        {
          "internalType": "address",
          "name": "to",
          "type": "address"
        },
        {
          "internalType": "uint256",
          "name": "tokenId",
          "type": "uint256"
        }
      ],
      "name": "safeTransferFrom",
      "outputs": [],
      "stateMutability": "nonpayable",
      "type": "function"
    },
    {
      "inputs": [
        {
          "internalType": "address",
          "name": "from",
          "type": "address"
        },
        {
          "internalType": "address",
          "name": "to",
          "type": "address"
        },
        {
          "internalType": "uint256",
          "name": "tokenId",
          "type": "uint256"
        },
        {
          "internalType": "bytes",
          "name": "data",
          "type": "bytes"
        }
      ],
      "name": "safeTransferFrom",
      "outputs": [],
      "stateMutability": "nonpayable",
      "type": "function"
    },
    {
      "inputs": [
        {
          "internalType": "address",
          "name": "operator",
          "type": "address"
        },
        {
          "internalType": "bool",
          "name": "approved",
          "type": "bool"
        }
      ],
      "name": "setApprovalForAll",
      "outputs": [],
      "stateMutability": "nonpayable",
      "type": "function"
    },
    {
      "inputs": [
        {
          "internalType": "bytes4",
          "name": "interfaceId",
          "type": "bytes4"
        }
      ],
      "name": "supportsInterface",
      "outputs": [
        {
          "internalType": "bool",
          "name": "",
          "type": "bool"
        }
      ],
      "stateMutability": "view",
      "type": "function"
    },
    {
      "inputs": [],
      "name": "symbol",
      "outputs": [
        {
          "internalType": "string",
          "name": "",
          "type": "string"
        }
      ],
      "stateMutability": "view",
      "type": "function"
    },
    {
      "inputs": [
        {
          "internalType": "uint256",
          "name": "tokenId",
          "type": "uint256"
        }
      ],
      "name": "tokenURI",
      "outputs": [
        {
          "internalType": "string",
          "name": "",
          "type": "string"
        }
      ],
      "stateMutability": "view",
      "type": "function"
    },
    {
      "inputs": [
        {
          "internalType": "address",
          "name": "from",
          "type": "address"
        },
        {
          "internalType": "address",
          "name": "to",
          "type": "address"
        },
        {
          "internalType": "uint256",
          "name": "tokenId",
          "type": "uint256"
        }
      ],
      "name": "transferFrom",
      "outputs": [],
      "stateMutability": "nonpayable",
      "type": "function"
    },
    {
      "inputs": [
        {
          "internalType": "address",
          "name": "newOwner",
          "type": "address"
        }
      ],
      "name": "transferOwnership",
      "outputs": [],
      "stateMutability": "nonpayable",
      "type": "function"
    }
  ],
  "bytecode": "0x608060405260016008553480156200001657600080fd5b50336040518060400160405280600981526020016810dbdd5c1bdb93919560ba1b8152506040518060400160405280600381526020016221a82760e91b8152508160009081620000679190620001b1565b506001620000768282620001b1565b5050506001600160a01b038116620000a857604051631e4fbdf760e01b81526000600482015260240160405180910390fd5b620000b381620000ba565b506200027d565b600780546001600160a01b038381166001600160a01b0319831681179093556040519116919082907f8be0079c531659141344cd1fd0a4f28419497f9722a3daafe3b4186f6b6457e090600090a35050565b634e487b7160e01b600052604160045260246000fd5b600181811c908216806200013757607f821691505b6020821081036200015857634e487b7160e01b600052602260045260246000fd5b50919050565b601f821115620001ac57600081815260208120601f850160051c81016020861015620001875750805b601f850160051c820191505b81811015620001a85782815560010162000193565b5050505b505050565b81516001600160401b03811115620001cd57620001cd6200010c565b620001e581620001de845462000122565b846200015e565b602080601f8311600181146200021d5760008415620002045750858301515b600019600386901b1c1916600185901b178555620001a8565b600085815260208120601f198616915b828110156200024e578886015182559484019460019091019084016200022d565b50858210156200026d5787850151600019600388901b60f8161c191681555b5050505050600190811b01905550565b611553806200028d6000396000f3fe608060405234801561001057600080fd5b50600436106101155760003560e01c806370a08231116100a2578063a22cb46511610071578063a22cb46514610238578063b88d4fde1461024b578063c87b56dd1461025e578063e985e9c514610271578063f2fde38b1461028457600080fd5b806370a0823114610204578063715018a6146102175780638da5cb5b1461021f57806395d89b411461023057600080fd5b8063095ea7b3116100e9578063095ea7b31461019757806323b872dd146101aa5780633062aebc146101bd57806342842e0e146101de5780636352211e146101f157600080fd5b80621f0ff01461011a57806301ffc9a71461012f57806306fdde0314610157578063081812fc1461016c575b600080fd5b61012d610128366004610fd6565b610297565b005b61014261013d366004611005565b6102f7565b60405190151581526020015b60405180910390f35b61015f610322565b60405161014e9190611072565b61017f61017a366004610fd6565b6103b4565b6040516001600160a01b03909116815260200161014e565b61012d6101a53660046110a1565b6103dd565b61012d6101b83660046110cb565b6103ec565b6101d06101cb3660046111b3565b610477565b60405190815260200161014e565b61012d6101ec3660046110cb565b6104ad565b61017f6101ff366004610fd6565b6104cd565b6101d0610212366004611227565b6104d8565b61012d610520565b6007546001600160a01b031661017f565b61015f610534565b61012d610246366004611242565b610543565b61012d61025936600461127e565b61054e565b61015f61026c366004610fd6565b610566565b61014261027f3660046112fa565b61066f565b61012d610292366004611227565b61069d565b6102a133826106d8565b6102eb5760405162461bcd60e51b8152602060048201526016602482015275139bdd081bdddb995c881b9bdc88185c1c1c9bdd995960521b60448201526064015b60405180910390fd5b6102f48161072f565b50565b60006001600160e01b03198216632483248360e11b148061031c575061031c8261076a565b92915050565b6060600080546103319061132d565b80601f016020809104026020016040519081016040528092919081815260200182805461035d9061132d565b80156103aa5780601f1061037f576101008083540402835291602001916103aa565b820191906000526020600020905b81548152906001019060200180831161038d57829003601f168201915b5050505050905090565b60006103bf826107ba565b506000828152600460205260409020546001600160a01b031661031c565b6103e88282336107f3565b5050565b6001600160a01b03821661041657604051633250574960e11b8152600060048201526024016102e2565b6000610423838333610800565b9050836001600160a01b0316816001600160a01b031614610471576040516364283d7b60e01b81526001600160a01b03808616600483015260248201849052821660448201526064016102e2565b50505050565b600880546000918291908261048b83611367565b91905055905061049b85826108f9565b6104a58184610913565b949350505050565b6104c88383836040518060200160405280600081525061054e565b505050565b600061031c826107ba565b60006001600160a01b038216610504576040516322718ad960e21b8152600060048201526024016102e2565b506001600160a01b031660009081526003602052604090205490565b610528610963565b6105326000610990565b565b6060600180546103319061132d565b6103e83383836109e2565b6105598484846103ec565b6104713385858585610a81565b6060610571826107ba565b506000828152600660205260408120805461058b9061132d565b80601f01602080910402602001604051908101604052809291908181526020018280546105b79061132d565b80156106045780601f106105d957610100808354040283529160200191610604565b820191906000526020600020905b8154815290600101906020018083116105e757829003601f168201915b50505050509050600061062260408051602081019091526000815290565b90508051600003610634575092915050565b81511561066657808260405160200161064e92919061138e565b60405160208183030381529060405292505050919050565b6104a584610bac565b6001600160a01b03918216600090815260056020908152604080832093909416825291909152205460ff1690565b6106a5610963565b6001600160a01b0381166106cf57604051631e4fbdf760e01b8152600060048201526024016102e2565b6102f481610990565b6000806106e4836104cd565b9050806001600160a01b0316846001600160a01b0316148061071f5750836001600160a01b0316610714846103b4565b6001600160a01b0316145b806104a557506104a5818561066f565b600061073e6000836000610800565b90506001600160a01b0381166103e857604051637e27328960e01b8152600481018390526024016102e2565b60006001600160e01b031982166380ac58cd60e01b148061079b57506001600160e01b03198216635b5e139f60e01b145b8061031c57506301ffc9a760e01b6001600160e01b031983161461031c565b6000818152600260205260408120546001600160a01b03168061031c57604051637e27328960e01b8152600481018490526024016102e2565b6104c88383836001610c21565b6000828152600260205260408120546001600160a01b039081169083161561082d5761082d818486610d27565b6001600160a01b0381161561086b5761084a600085600080610c21565b6001600160a01b038116600090815260036020526040902080546000190190555b6001600160a01b0385161561089a576001600160a01b0385166000908152600360205260409020805460010190555b60008481526002602052604080822080546001600160a01b0319166001600160a01b0389811691821790925591518793918516917fddf252ad1be2c89b69c2b068fc378daa952ba7f163c4a11628f55a4df523b3ef91a4949350505050565b6103e8828260405180602001604052806000815250610d8b565b600082815260066020526040902061092b8282611403565b506040518281527ff8e1a15aba9398e019f0b49df1a4fde98ee17ae345cb5f6b5e2c27f5033e8ce79060200160405180910390a15050565b6007546001600160a01b031633146105325760405163118cdaa760e01b81523360048201526024016102e2565b600780546001600160a01b038381166001600160a01b0319831681179093556040519116919082907f8be0079c531659141344cd1fd0a4f28419497f9722a3daafe3b4186f6b6457e090600090a35050565b6001600160a01b038216610a1457604051630b61174360e31b81526001600160a01b03831660048201526024016102e2565b6001600160a01b03838116600081815260056020908152604080832094871680845294825291829020805460ff191686151590811790915591519182527f17307eab39ab6107e8899845ad3d59bd9653f200f220920489ca2b5937696c31910160405180910390a3505050565b6001600160a01b0383163b15610ba557604051630a85bd0160e11b81526001600160a01b0384169063150b7a0290610ac39088908890879087906004016114c3565b6020604051808303816000875af1925050508015610afe575060408051601f3d908101601f19168201909252610afb91810190611500565b60015b610b67573d808015610b2c576040519150601f19603f3d011682016040523d82523d6000602084013e610b31565b606091505b508051600003610b5f57604051633250574960e11b81526001600160a01b03851660048201526024016102e2565b805181602001fd5b6001600160e01b03198116630a85bd0160e11b14610ba357604051633250574960e11b81526001600160a01b03851660048201526024016102e2565b505b5050505050565b6060610bb7826107ba565b506000610bcf60408051602081019091526000815290565b90506000815111610bef5760405180602001604052806000815250610c1a565b80610bf984610da3565b604051602001610c0a92919061138e565b6040516020818303038152906040525b9392505050565b8080610c3557506001600160a01b03821615155b15610cf7576000610c45846107ba565b90506001600160a01b03831615801590610c715750826001600160a01b0316816001600160a01b031614155b8015610c845750610c82818461066f565b155b15610cad5760405163a9fbf51f60e01b81526001600160a01b03841660048201526024016102e2565b8115610cf55783856001600160a01b0316826001600160a01b03167f8c5be1e5ebec7d5bd14f71427d1e84f3dd0314c0f7b2291e5b200ac8c7c3b92560405160405180910390a45b505b5050600090815260046020526040902080546001600160a01b0319166001600160a01b0392909216919091179055565b610d32838383610e36565b6104c8576001600160a01b038316610d6057604051637e27328960e01b8152600481018290526024016102e2565b60405163177e802f60e01b81526001600160a01b0383166004820152602481018290526044016102e2565b610d958383610e99565b6104c8336000858585610a81565b60606000610db083610efe565b600101905060008167ffffffffffffffff811115610dd057610dd0611107565b6040519080825280601f01601f191660200182016040528015610dfa576020820181803683370190505b5090508181016020015b600019016f181899199a1a9b1b9c1cb0b131b232b360811b600a86061a8153600a8504945084610e0457509392505050565b60006001600160a01b038316158015906104a55750826001600160a01b0316846001600160a01b03161480610e705750610e70848461066f565b806104a55750506000908152600460205260409020546001600160a01b03908116911614919050565b6001600160a01b038216610ec357604051633250574960e11b8152600060048201526024016102e2565b6000610ed183836000610800565b90506001600160a01b038116156104c8576040516339e3563760e11b8152600060048201526024016102e2565b60008072184f03e93ff9f4daa797ed6e38ed64bf6a1f0160401b8310610f3d5772184f03e93ff9f4daa797ed6e38ed64bf6a1f0160401b830492506040015b6d04ee2d6d415b85acef81000000008310610f69576d04ee2d6d415b85acef8100000000830492506020015b662386f26fc100008310610f8757662386f26fc10000830492506010015b6305f5e1008310610f9f576305f5e100830492506008015b6127108310610fb357612710830492506004015b60648310610fc5576064830492506002015b600a831061031c5760010192915050565b600060208284031215610fe857600080fd5b5035919050565b6001600160e01b0319811681146102f457600080fd5b60006020828403121561101757600080fd5b8135610c1a81610fef565b60005b8381101561103d578181015183820152602001611025565b50506000910152565b6000815180845261105e816020860160208601611022565b601f01601f19169290920160200192915050565b602081526000610c1a6020830184611046565b80356001600160a01b038116811461109c57600080fd5b919050565b600080604083850312156110b457600080fd5b6110bd83611085565b946020939093013593505050565b6000806000606084860312156110e057600080fd5b6110e984611085565b92506110f760208501611085565b9150604084013590509250925092565b634e487b7160e01b600052604160045260246000fd5b600067ffffffffffffffff8084111561113857611138611107565b604051601f8501601f19908116603f0116810190828211818310171561116057611160611107565b8160405280935085815286868601111561117957600080fd5b858560208301376000602087830101525050509392505050565b600082601f8301126111a457600080fd5b610c1a8383356020850161111d565b6000806000606084860312156111c857600080fd5b6111d184611085565b9250602084013567ffffffffffffffff808211156111ee57600080fd5b6111fa87838801611193565b9350604086013591508082111561121057600080fd5b5061121d86828701611193565b9150509250925092565b60006020828403121561123957600080fd5b610c1a82611085565b6000806040838503121561125557600080fd5b61125e83611085565b91506020830135801515811461127357600080fd5b809150509250929050565b6000806000806080858703121561129457600080fd5b61129d85611085565b93506112ab60208601611085565b925060408501359150606085013567ffffffffffffffff8111156112ce57600080fd5b8501601f810187136112df57600080fd5b6112ee8782356020840161111d565b91505092959194509250565b6000806040838503121561130d57600080fd5b61131683611085565b915061132460208401611085565b90509250929050565b600181811c9082168061134157607f821691505b60208210810361136157634e487b7160e01b600052602260045260246000fd5b50919050565b60006001820161138757634e487b7160e01b600052601160045260246000fd5b5060010190565b600083516113a0818460208801611022565b8351908301906113b4818360208801611022565b01949350505050565b601f8211156104c857600081815260208120601f850160051c810160208610156113e45750805b601f850160051c820191505b81811015610ba3578281556001016113f0565b815167ffffffffffffffff81111561141d5761141d611107565b6114318161142b845461132d565b846113bd565b602080601f831160018114611466576000841561144e5750858301515b600019600386901b1c1916600185901b178555610ba3565b600085815260208120601f198616915b8281101561149557888601518255948401946001909101908401611476565b50858210156114b35787850151600019600388901b60f8161c191681555b5050505050600190811b01905550565b6001600160a01b03858116825284166020820152604081018390526080606082018190526000906114f690830184611046565b9695505050505050565b60006020828403121561151257600080fd5b8151610c1a81610fef56fea26469706673582212200f4c5808068e76d9c001a7f9cb70db2444f0023b13704774b71768286042d64464736f6c63430008140033",
  "linkReferences": {},
  "deployedLinkReferences": {}
}