{
  "_format": "hh-sol-artifact-1",
  "contractName": "CouponNFT",
  "sourceName": "contracts/CouponNFT.sol",
  "abi": [
    {
      "inputs": [],
      "stateMutability": "nonpayable",
      "type": "constructor"
    },
    {
      "inputs": [
        {
          "internalType": "address",
          "name": "sender",
          "type": "address"
        },
        {
          "internalType": "uint256",
          "name": "tokenId",
          "type": "uint256"
        },
        {
          "internalType": "address",
          "name": "owner",
          "type": "address"
        }
      ],
      "name": "ERC721IncorrectOwner",
      "type": "error"
    },
    {
      "inputs": [
        {
          "internalType": "address",
          "name": "operator",
          "type": "address"
        },
        {
          "internalType": "uint256",
          "name": "tokenId",
          "type": "uint256"
        }
      ],
      "name": "ERC721InsufficientApproval",
      "type": "error"
    },
    {
      "inputs": [
        {
          "internalType": "address",
          "name": "approver",
          "type": "address"
        }
      ],
      "name": "ERC721InvalidApprover",
      "type": "error"
    },
    {
      "inputs": [
        {
          "internalType": "address",
          "name": "operator",
          "type": "address"
        }
      ],
      "name": "ERC721InvalidOperator",
      "type": "error"
    },
    {
      "inputs": [
        {
          "internalType": "address",
          "name": "owner",
          "type": "address"
        }
      ],
      "name": "ERC721InvalidOwner",
      "type": "error"
    },
    {
      "inputs": [
        {
          "internalType": "address",
          "name": "receiver",
          "type": "address"
        }
      ],
      "name": "ERC721InvalidReceiver",
      "type": "error"
    },
    {
      "inputs": [
        {
          "internalType": "address",
          "name": "sender",
          "type": "address"
        }
      ],
      "name": "ERC721InvalidSender",
      "type": "error"
    },
    {
      "inputs": [
        {
          "internalType": "uint256",
          "name": "tokenId",
          "type": "uint256"
        }
      ],
      "name": "ERC721NonexistentToken",
      "type": "error"
    },
    {
      "inputs": [
        {
          "internalType": "address",
          "name": "owner",
          "type": "address"
        }
      ],
      "name": "OwnableInvalidOwner",
      "type": "error"
    },
    {
      "inputs": [
        {
          "internalType": "address",
          "name": "account",
          "type": "address"
        }
      ],
      "name": "OwnableUnauthorizedAccount",
      "type": "error"
    },
    {
      "anonymous": false,
      "inputs": [
        {
          "indexed": true,
          "internalType": "address",
          "name": "owner",
          "type": "address"
        },
        {
          "indexed": true,
          "internalType": "address",
          "name": "approved",
          "type": "address"
        },
        {
          "indexed": true,
          "internalType": "uint256",
          "name": "tokenId",
          "type": "uint256"
        }
      ],
      "name": "Approval",
      "type": "event"
    },
    {
      "anonymous": false,
      "inputs": [
        {
          "indexed": true,
          "internalType": "address",
          "name": "owner",
          "type": "address"
        },
        {
          "indexed": true,
          "internalType": "address",
          "name": "operator",
          "type": "address"
        },
        {
          "indexed": false,
          "internalType": "bool",
          "name": "approved",
          "type": "bool"
        }
      ],
      "name": "ApprovalForAll",
      "type": "event"
    },
    {
      "anonymous": false,
      "inputs": [
        {
          "indexed": false,
          "internalType": "uint256",
          "name": "_fromTokenId",
          "type": "uint256"
        },
        {
          "indexed": false,
          "internalType": "uint256",
          "name": "_toTokenId",
          "type": "uint256"
        }
      ],
      "name": "BatchMetadataUpdate",
      "type": "event"
    },
    {
      "anonymous": false,
      "inputs": [
        {
          "indexed": false,
          "internalType": "uint256",
          "name": "_tokenId",
          "type": "uint256"
        }
      ],
      "name": "MetadataUpdate",
      "type": "event"
    },
    {
      "anonymous": false,
      "inputs": [
        {
          "indexed": true,
          "internalType": "address",
          "name": "previousOwner",
          "type": "address"
        },
        {
          "indexed": true,
          "internalType": "address",
          "name": "newOwner",
          "type": "address"
        }
      ],
      "name": "OwnershipTransferred",
      "type": "event"
    },
    {
      "anonymous": false,
      "inputs": [
        {
          "indexed": true,
          "internalType": "address",
          "name": "to",
          "type": "address"
        },
        {
          "indexed": true,
          "internalType": "uint256",
          "name": "tokenId",
          "type": "uint256"
        },
        {
          "indexed": false,
          "internalType": "string",
          "name": "billNo",
          "type": "string"
        },
        {
          "indexed": false,
          "internalType": "string",
          "name": "tokenURI",
          "type": "string"
        }
      ],
      "name": "ReceiptMinted",
      "type": "event"
    },
    {
      "anonymous": false,
      "inputs": [
        {
          "indexed": true,
          "internalType": "address",
          "name": "from",
          "type": "address"
        },
        {
          "indexed": true,
          "internalType": "address",
          "name": "to",
          "type": "address"
        },
        {
          "indexed": true,
          "internalType": "uint256",
          "name": "tokenId",
          "type": "uint256"
        }
      ],
      "name": "Transfer",
      "type": "event"
    },
    {
      "inputs": [
        {
          "internalType": "address",
          "name": "to",
          "type": "address"
        },
        {
          "internalType": "uint256",
          "name": "tokenId",
          "type": "uint256"
        }
      ],
      "name": "approve",
      "outputs": [],
      "stateMutability": "nonpayable",
      "type": "function"
    },
    {
      "inputs": [
        {
          "internalType": "address",
          "name": "owner",
          "type": "address"
        }
      ],
      "name": "balanceOf",
      "outputs": [
        {
          "internalType": "uint256",
          "name": "",
          "type": "uint256"
        }
      ],
      "stateMutability": "view",
      "type": "function"
    },
    {
      "inputs": [
        {
          "internalType": "uint256",
          "name": "tokenId",
          "type": "uint256"
        }
      ],
      "name": "burnCoupon",
      "outputs": [],
      "stateMutability": "nonpayable",
      "type": "function"
    },
    {
      "inputs": [
        {
          "internalType": "uint256",
          "name": "tokenId",
          "type": "uint256"
        }
      ],
      "name": "getApproved",
      "outputs": [
        {
          "internalType": "address",
          "name": "",
          "type": "address"
        }
      ],
      "stateMutability": "view",
      "type": "function"
    },
    {
      "inputs": [
        {
          "internalType": "address",
          "name": "owner",
          "type": "address"
        },
        {
          "internalType": "address",
          "name": "operator",
          "type": "address"
        }
      ],
      "name": "isApprovedForAll",
      "outputs": [
        {
          "internalType": "bool",
          "name": "",
          "type": "bool"
        }
      ],
      "stateMutability": "view",
      "type": "function"
    },
    {
      "inputs": [
        {
          "internalType": "address",
          "name": "to",
          "type": "address"
        },
        {
          "internalType": "string",
          "name": "couponCode",
          "type": "string"
        },
        {
          "internalType": "string",
          "name": "tokenURI",
          "type": "string"
        }
      ],
      "name": "mintCoupon",
      "outputs": [
        {
          "internalType": "uint256",
          "name": "",
          "type": "uint256"
        }
      ],
      "stateMutability": "nonpayable",
      "type": "function"
    },
    {
      "inputs": [
        {
          "internalType": "address",
          "name": "to",
          "type": "address"
        },
        {
          "internalType": "string",
          "name": "billNo",
          "type": "string"
        },
        {
          "internalType": "string",
          "name": "tokenURI",
          "type": "string"
        }
      ],
      "name": "mintReceipt",
      "outputs": [
        {
          "internalType": "uint256",
          "name": "",
          "type": "uint256"
        }
      ],
      "stateMutability": "nonpayable",
      "type": "function"
    },
    {
      "inputs": [],
      "name": "name",
      "outputs": [
        {
          "internalType": "string",
          "name": "",
          "type": "string"
        }
      ],
      "stateMutability": "view",
      "type": "function"
    },
    {
      "inputs": [],
      "name": "owner",
      "outputs": [
        {
          "internalType": "address",
          "name": "",
          "type": "address"
        }
      ],
      "stateMutability": "view",
      "type": "function"
    },
    {
      "inputs": [
        {
          "internalType": "uint256",
          "name": "tokenId",
          "type": "uint256"
        }
      ],
      "name": "ownerOf",
      "outputs": [
        {
          "internalType": "address",
          "name": "",
          "type": "address"
        }
      ],
      "stateMutability": "view",
      "type": "function"
    },
    {
      "inputs": [],
      "name": "renounceOwnership",
      "outputs": [],
      "stateMutability": "nonpayable",
      "type": "function"
    },
    {
      "inputs": [
        {
          "internalType": "address",
          "name": "from",
          "type": "address"
        },
        {
          "internalType": "address",
          "name": "to",
          "type": "address"
        },
        {
          "internalType": "uint256",
          "name": "tokenId",
          "type": "uint256"
        }
      ],
      "name": "safeTransferFrom",
      "outputs": [],
      "stateMutability": "nonpayable",
      "type": "function"
    },
    {
      "inputs": [
        {
          "internalType": "address",
          "name": "from",
          "type": "address"
        },
        {
          "internalType": "address",
          "name": "to",
          "type": "address"
        },
        {
          "internalType": "uint256",
          "name": "tokenId",
          "type": "uint256"
        },
        {
          "internalType": "bytes",
          "name": "data",
          "type": "bytes"
        }
      ],
      "name": "safeTransferFrom",
      "outputs": [],
      "stateMutability": "nonpayable",
      "type": "function"
    },
    {
      "inputs": [
        {
          "internalType": "address",
          "name": "operator",
          "type": "address"
        },
        {
          "internalType": "bool",
          "name": "approved",
          "type": "bool"
        }
      ],
      "name": "setApprovalForAll",
      "outputs": [],
      "stateMutability": "nonpayable",
      "type": "function"
    },
    {
      "inputs": [
        {
          "internalType": "bytes4",
          "name": "interfaceId",
          "type": "bytes4"
        }
      ],
      "name": "supportsInterface",
      "outputs": [
        {
          "internalType": "bool",
          "name": "",
          "type": "bool"
        }
      ],
      "stateMutability": "view",
      "type": "function"
    },
    {
      "inputs": [],
      "name": "symbol",
      "outputs": [
        {
          "internalType": "string",
          "name": "",
          "type": "string"
        }
      ],
      "stateMutability": "view",
      "type": "function"
    },
    {
      "inputs": [
        {
          "internalType": "uint256",
          "name": "tokenId",
          "type": "uint256"
        }
      ],
      "name": "tokenURI",
      "outputs": [
        {
          "internalType": "string",
          "name": "",
          "type": "string"
        }
      ],
      "stateMutability": "view",
      "type": "function"
    },
    {
      "inputs": [
        {
          "internalType": "address",
          "name": "from",
          "type": "address"
        },
        {
          "internalType": "address",
          "name": "to",
          "type": "address"
        },
        {
          "internalType": "uint256",
          "name": "tokenId",
          "type": "uint256"
        }
      ],
      "name": "transferFrom",
      "outputs": [],
      "stateMutability": "nonpayable",
      "type": "function"
    },
    {
      "inputs": [
        {
          "internalType": "address",
          "name": "newOwner",
          "type": "address"
        }
      ],
      "name": "transferOwnership",
      "outputs": [],
      "stateMutability": "nonpayable",
      "type": "function"
    }
  ],
  "bytecode": "0x608060405260016008553480156200001657600080fd5b50336040518060400160405280600981526020016810dbdd5c1bdb93919560ba1b8152506040518060400160405280600381526020016221a82760e91b8152508160009081620000679190620001b1565b506001620000768282620001b1565b5050506001600160a01b038116620000a857604051631e4fbdf760e01b81526000600482015260240160405180910390fd5b620000b381620000ba565b506200027d565b600780546001600160a01b038381166001600160a01b0319831681179093556040519116919082907f8be0079c531659141344cd1fd0a4f28419497f9722a3daafe3b4186f6b6457e090600090a35050565b634e487b7160e01b600052604160045260246000fd5b600181811c908216806200013757607f821691505b6020821081036200015857634e487b7160e01b600052602260045260246000fd5b50919050565b601f821115620001ac57600081815260208120601f850160051c81016020861015620001875750805b601f850160051c820191505b81811015620001a85782815560010162000193565b5050505b505050565b81516001600160401b03811115620001cd57620001cd6200010c565b620001e581620001de845462000122565b846200015e565b602080601f8311600181146200021d5760008415620002045750858301515b600019600386901b1c1916600185901b178555620001a8565b600085815260208120601f198616915b828110156200024e578886015182559484019460019091019084016200022d565b50858210156200026d5787850151600019600388901b60f8161c191681555b5050505050600190811b01905550565b611619806200028d6000396000f3fe608060405234801561001057600080fd5b50600436106101205760003560e01c80636352211e116100ad578063a22cb46511610071578063a22cb46514610256578063b88d4fde14610269578063c87b56dd1461027c578063e985e9c51461028f578063f2fde38b146102a257600080fd5b80636352211e1461020f57806370a0823114610222578063715018a6146102355780638da5cb5b1461023d57806395d89b411461024e57600080fd5b8063095ea7b3116100f4578063095ea7b3146101a257806323b872dd146101b55780633062aebc146101c85780633ceaa93b146101e957806342842e0e146101fc57600080fd5b80621f0ff01461012557806301ffc9a71461013a57806306fdde0314610162578063081812fc14610177575b600080fd5b61013861013336600461106e565b6102b5565b005b61014d61014836600461109d565b610315565b60405190151581526020015b60405180910390f35b61016a610340565b604051610159919061110a565b61018a61018536600461106e565b6103d2565b6040516001600160a01b039091168152602001610159565b6101386101b0366004611139565b6103fb565b6101386101c3366004611163565b61040a565b6101db6101d636600461124b565b610495565b604051908152602001610159565b6101db6101f736600461124b565b6104cb565b61013861020a366004611163565b610545565b61018a61021d36600461106e565b610565565b6101db6102303660046112bf565b610570565b6101386105b8565b6007546001600160a01b031661018a565b61016a6105cc565b6101386102643660046112da565b6105db565b610138610277366004611316565b6105e6565b61016a61028a36600461106e565b6105fe565b61014d61029d366004611392565b610707565b6101386102b03660046112bf565b610735565b6102bf3382610770565b6103095760405162461bcd60e51b8152602060048201526016602482015275139bdd081bdddb995c881b9bdc88185c1c1c9bdd995960521b60448201526064015b60405180910390fd5b610312816107c7565b50565b60006001600160e01b03198216632483248360e11b148061033a575061033a82610802565b92915050565b60606000805461034f906113c5565b80601f016020809104026020016040519081016040528092919081815260200182805461037b906113c5565b80156103c85780601f1061039d576101008083540402835291602001916103c8565b820191906000526020600020905b8154815290600101906020018083116103ab57829003601f168201915b5050505050905090565b60006103dd82610852565b506000828152600460205260409020546001600160a01b031661033a565b61040682823361088b565b5050565b6001600160a01b03821661043457604051633250574960e11b815260006004820152602401610300565b6000610441838333610898565b9050836001600160a01b0316816001600160a01b03161461048f576040516364283d7b60e01b81526001600160a01b0380861660048301526024820184905282166044820152606401610300565b50505050565b60088054600091829190826104a9836113ff565b9190505590506104b98582610991565b6104c381846109ab565b949350505050565b60088054600091829190826104df836113ff565b9190505590506104ef8582610991565b6104f981846109ab565b80856001600160a01b03167f662f75f35e5da4c10b9b140e56d9a82ab0af5f9c42088c25acacc26671f6df288686604051610535929190611426565b60405180910390a3949350505050565b610560838383604051806020016040528060008152506105e6565b505050565b600061033a82610852565b60006001600160a01b03821661059c576040516322718ad960e21b815260006004820152602401610300565b506001600160a01b031660009081526003602052604090205490565b6105c06109fb565b6105ca6000610a28565b565b60606001805461034f906113c5565b610406338383610a7a565b6105f184848461040a565b61048f3385858585610b19565b606061060982610852565b5060008281526006602052604081208054610623906113c5565b80601f016020809104026020016040519081016040528092919081815260200182805461064f906113c5565b801561069c5780601f106106715761010080835404028352916020019161069c565b820191906000526020600020905b81548152906001019060200180831161067f57829003601f168201915b5050505050905060006106ba60408051602081019091526000815290565b905080516000036106cc575092915050565b8151156106fe5780826040516020016106e6929190611454565b60405160208183030381529060405292505050919050565b6104c384610c44565b6001600160a01b03918216600090815260056020908152604080832093909416825291909152205460ff1690565b61073d6109fb565b6001600160a01b03811661076757604051631e4fbdf760e01b815260006004820152602401610300565b61031281610a28565b60008061077c83610565565b9050806001600160a01b0316846001600160a01b031614806107b75750836001600160a01b03166107ac846103d2565b6001600160a01b0316145b806104c357506104c38185610707565b60006107d66000836000610898565b90506001600160a01b03811661040657604051637e27328960e01b815260048101839052602401610300565b60006001600160e01b031982166380ac58cd60e01b148061083357506001600160e01b03198216635b5e139f60e01b145b8061033a57506301ffc9a760e01b6001600160e01b031983161461033a565b6000818152600260205260408120546001600160a01b03168061033a57604051637e27328960e01b815260048101849052602401610300565b6105608383836001610cb9565b6000828152600260205260408120546001600160a01b03908116908316156108c5576108c5818486610dbf565b6001600160a01b03811615610903576108e2600085600080610cb9565b6001600160a01b038116600090815260036020526040902080546000190190555b6001600160a01b03851615610932576001600160a01b0385166000908152600360205260409020805460010190555b60008481526002602052604080822080546001600160a01b0319166001600160a01b0389811691821790925591518793918516917fddf252ad1be2c89b69c2b068fc378daa952ba7f163c4a11628f55a4df523b3ef91a4949350505050565b610406828260405180602001604052806000815250610e23565b60008281526006602052604090206109c382826114c9565b506040518281527ff8e1a15aba9398e019f0b49df1a4fde98ee17ae345cb5f6b5e2c27f5033e8ce79060200160405180910390a15050565b6007546001600160a01b031633146105ca5760405163118cdaa760e01b8152336004820152602401610300565b600780546001600160a01b038381166001600160a01b0319831681179093556040519116919082907f8be0079c531659141344cd1fd0a4f28419497f9722a3daafe3b4186f6b6457e090600090a35050565b6001600160a01b038216610aac57604051630b61174360e31b81526001600160a01b0383166004820152602401610300565b6001600160a01b03838116600081815260056020908152604080832094871680845294825291829020805460ff191686151590811790915591519182527f17307eab39ab6107e8899845ad3d59bd9653f200f220920489ca2b5937696c31910160405180910390a3505050565b6001600160a01b0383163b15610c3d57604051630a85bd0160e11b81526001600160a01b0384169063150b7a0290610b5b908890889087908790600401611589565b6020604051808303816000875af1925050508015610b96575060408051601f3d908101601f19168201909252610b93918101906115c6565b60015b610bff573d808015610bc4576040519150601f19603f3d011682016040523d82523d6000602084013e610bc9565b606091505b508051600003610bf757604051633250574960e11b81526001600160a01b0385166004820152602401610300565b805181602001fd5b6001600160e01b03198116630a85bd0160e11b14610c3b57604051633250574960e11b81526001600160a01b0385166004820152602401610300565b505b5050505050565b6060610c4f82610852565b506000610c6760408051602081019091526000815290565b90506000815111610c875760405180602001604052806000815250610cb2565b80610c9184610e3b565b604051602001610ca2929190611454565b6040516020818303038152906040525b9392505050565b8080610ccd57506001600160a01b03821615155b15610d8f576000610cdd84610852565b90506001600160a01b03831615801590610d095750826001600160a01b0316816001600160a01b031614155b8015610d1c5750610d1a8184610707565b155b15610d455760405163a9fbf51f60e01b81526001600160a01b0384166004820152602401610300565b8115610d8d5783856001600160a01b0316826001600160a01b03167f8c5be1e5ebec7d5bd14f71427d1e84f3dd0314c0f7b2291e5b200ac8c7c3b92560405160405180910390a45b505b5050600090815260046020526040902080546001600160a01b0319166001600160a01b0392909216919091179055565b610dca838383610ece565b610560576001600160a01b038316610df857604051637e27328960e01b815260048101829052602401610300565b60405163177e802f60e01b81526001600160a01b038316600482015260248101829052604401610300565b610e2d8383610f31565b610560336000858585610b19565b60606000610e4883610f96565b600101905060008167ffffffffffffffff811115610e6857610e6861119f565b6040519080825280601f01601f191660200182016040528015610e92576020820181803683370190505b5090508181016020015b600019016f181899199a1a9b1b9c1cb0b131b232b360811b600a86061a8153600a8504945084610e9c57509392505050565b60006001600160a01b038316158015906104c35750826001600160a01b0316846001600160a01b03161480610f085750610f088484610707565b806104c35750506000908152600460205260409020546001600160a01b03908116911614919050565b6001600160a01b038216610f5b57604051633250574960e11b815260006004820152602401610300565b6000610f6983836000610898565b90506001600160a01b03811615610560576040516339e3563760e11b815260006004820152602401610300565b60008072184f03e93ff9f4daa797ed6e38ed64bf6a1f0160401b8310610fd55772184f03e93ff9f4daa797ed6e38ed64bf6a1f0160401b830492506040015b6d04ee2d6d415b85acef81000000008310611001576d04ee2d6d415b85acef8100000000830492506020015b662386f26fc10000831061101f57662386f26fc10000830492506010015b6305f5e1008310611037576305f5e100830492506008015b612710831061104b57612710830492506004015b6064831061105d576064830492506002015b600a831061033a5760010192915050565b60006020828403121561108057600080fd5b5035919050565b6001600160e01b03198116811461031257600080fd5b6000602082840312156110af57600080fd5b8135610cb281611087565b60005b838110156110d55781810151838201526020016110bd565b50506000910152565b600081518084526110f68160208601602086016110ba565b601f01601f19169290920160200192915050565b602081526000610cb260208301846110de565b80356001600160a01b038116811461113457600080fd5b919050565b6000806040838503121561114c57600080fd5b6111558361111d565b946020939093013593505050565b60008060006060848603121561117857600080fd5b6111818461111d565b925061118f6020850161111d565b9150604084013590509250925092565b634e487b7160e01b600052604160045260246000fd5b600067ffffffffffffffff808411156111d0576111d061119f565b604051601f8501601f19908116603f011681019082821181831017156111f8576111f861119f565b8160405280935085815286868601111561121157600080fd5b858560208301376000602087830101525050509392505050565b600082601f83011261123c57600080fd5b610cb2838335602085016111b5565b60008060006060848603121561126057600080fd5b6112698461111d565b9250602084013567ffffffffffffffff8082111561128657600080fd5b6112928783880161122b565b935060408601359150808211156112a857600080fd5b506112b58682870161122b565b9150509250925092565b6000602082840312156112d157600080fd5b610cb28261111d565b600080604083850312156112ed57600080fd5b6112f68361111d565b91506020830135801515811461130b57600080fd5b809150509250929050565b6000806000806080858703121561132c57600080fd5b6113358561111d565b93506113436020860161111d565b925060408501359150606085013567ffffffffffffffff81111561136657600080fd5b8501601f8101871361137757600080fd5b611386878235602084016111b5565b91505092959194509250565b600080604083850312156113a557600080fd5b6113ae8361111d565b91506113bc6020840161111d565b90509250929050565b600181811c908216806113d957607f821691505b6020821081036113f957634e487b7160e01b600052602260045260246000fd5b50919050565b60006001820161141f57634e487b7160e01b600052601160045260246000fd5b5060010190565b60408152600061143960408301856110de565b828103602084015261144b81856110de565b95945050505050565b600083516114668184602088016110ba565b83519083019061147a8183602088016110ba565b01949350505050565b601f82111561056057600081815260208120601f850160051c810160208610156114aa5750805b601f850160051c820191505b81811015610c3b578281556001016114b6565b815167ffffffffffffffff8111156114e3576114e361119f565b6114f7816114f184546113c5565b84611483565b602080601f83116001811461152c57600084156115145750858301515b600019600386901b1c1916600185901b178555610c3b565b600085815260208120601f198616915b8281101561155b5788860151825594840194600190910190840161153c565b50858210156115795787850151600019600388901b60f8161c191681555b5050505050600190811b01905550565b6001600160a01b03858116825284166020820152604081018390526080606082018190526000906115bc908301846110de565b9695505050505050565b6000602082840312156115d857600080fd5b8151610cb28161108756fea2646970667358221220ab6316513f81731aed9eabbd25c74cb359fec71778602e91e002a9fadf1bdfe764736f6c63430008140033",
  "linkReferences": {},
  "deployedLinkReferences": {}
}